{
  "contractName": "EtherLotto",
  "abi": [
    {
      "constant": true,
      "inputs": [],
      "name": "getPastWinnersCount",
      "outputs": [
        {
          "name": "pastWinnersCount",
          "type": "uint256"
        }
      ],
      "payable": false,
      "stateMutability": "view",
      "type": "function"
    },
    {
      "constant": true,
      "inputs": [],
      "name": "getState",
      "outputs": [
        {
          "name": "_state",
          "type": "uint256"
        }
      ],
      "payable": false,
      "stateMutability": "view",
      "type": "function"
    },
    {
      "constant": false,
      "inputs": [],
      "name": "withdraw",
      "outputs": [],
      "payable": false,
      "stateMutability": "nonpayable",
      "type": "function"
    },
    {
      "constant": false,
      "inputs": [
        {
          "name": "_luckyNumber",
          "type": "uint256"
        }
      ],
      "name": "bid",
      "outputs": [],
      "payable": true,
      "stateMutability": "payable",
      "type": "function"
    },
    {
      "constant": false,
      "inputs": [],
      "name": "clear",
      "outputs": [],
      "payable": false,
      "stateMutability": "nonpayable",
      "type": "function"
    },
    {
      "constant": true,
      "inputs": [],
      "name": "getPotBalance",
      "outputs": [
        {
          "name": "potBalance",
          "type": "uint256"
        }
      ],
      "payable": false,
      "stateMutability": "view",
      "type": "function"
    },
    {
      "constant": true,
      "inputs": [],
      "name": "getPlayersCount",
      "outputs": [
        {
          "name": "playersCount",
          "type": "uint256"
        }
      ],
      "payable": false,
      "stateMutability": "view",
      "type": "function"
    },
    {
      "constant": true,
      "inputs": [],
      "name": "getDuration",
      "outputs": [
        {
          "name": "_duration",
          "type": "uint256"
        }
      ],
      "payable": false,
      "stateMutability": "view",
      "type": "function"
    },
    {
      "constant": false,
      "inputs": [],
      "name": "chooseWinner",
      "outputs": [],
      "payable": false,
      "stateMutability": "nonpayable",
      "type": "function"
    },
    {
      "constant": true,
      "inputs": [
        {
          "name": "_maximum",
          "type": "uint256"
        }
      ],
      "name": "getRandom",
      "outputs": [
        {
          "name": "random",
          "type": "uint256"
        }
      ],
      "payable": false,
      "stateMutability": "view",
      "type": "function"
    },
    {
      "constant": false,
      "inputs": [],
      "name": "setNextState",
      "outputs": [],
      "payable": false,
      "stateMutability": "nonpayable",
      "type": "function"
    },
    {
      "constant": true,
      "inputs": [],
      "name": "getCreationTime",
      "outputs": [
        {
          "name": "_creationTime",
          "type": "uint256"
        }
      ],
      "payable": false,
      "stateMutability": "view",
      "type": "function"
    },
    {
      "constant": true,
      "inputs": [
        {
          "name": "i",
          "type": "uint256"
        }
      ],
      "name": "getPastWinnerData",
      "outputs": [
        {
          "name": "id",
          "type": "address"
        },
        {
          "name": "luckyNumber",
          "type": "uint256"
        },
        {
          "name": "amount",
          "type": "uint256"
        },
        {
          "name": "winningTime",
          "type": "uint256"
        }
      ],
      "payable": false,
      "stateMutability": "view",
      "type": "function"
    },
    {
      "anonymous": false,
      "inputs": [
        {
          "indexed": false,
          "name": "id",
          "type": "address"
        },
        {
          "indexed": false,
          "name": "index",
          "type": "uint256"
        },
        {
          "indexed": false,
          "name": "amount",
          "type": "uint256"
        },
        {
          "indexed": false,
          "name": "luckyNumber",
          "type": "uint256"
        }
      ],
      "name": "NewBidRecieved",
      "type": "event"
    },
    {
      "anonymous": false,
      "inputs": [
        {
          "indexed": false,
          "name": "random",
          "type": "uint256"
        }
      ],
      "name": "CalculatedNewRandom",
      "type": "event"
    },
    {
      "anonymous": false,
      "inputs": [
        {
          "indexed": false,
          "name": "state",
          "type": "uint8"
        }
      ],
      "name": "StateChanged",
      "type": "event"
    }
  ],
  "bytecode": "0x6060604052600080556702c68af0bb14000060015560036002556000600360006101000a81548160ff0219169083600281111561003857fe5b0217905550426004556206978060055560006007556000600955341561005d57600080fd5b610e538061006c6000396000f3006060604052600436106100c5576000357c0100000000000000000000000000000000000000000000000000000000900463ffffffff16806315d3e8d5146100ca5780631865c57d146100f35780633ccfd60b1461011c578063454a2ab31461013157806352efea6e1461014957806371e8fb571461015e578063a76594bf14610187578063ad2e8c9b146101b0578063cd38aa87146101d9578063cd4b6914146101ee578063e2dc931414610225578063e6519a351461023a578063efa2e19d14610263575b600080fd5b34156100d557600080fd5b6100dd6102db565b6040518082815260200191505060405180910390f35b34156100fe57600080fd5b6101066102e8565b6040518082815260200191505060405180910390f35b341561012757600080fd5b61012f61030a565b005b61014760048080359060200190919050506103d6565b005b341561015457600080fd5b61015c610550565b005b341561016957600080fd5b6101716105e3565b6040518082815260200191505060405180910390f35b341561019257600080fd5b61019a6105ec565b6040518082815260200191505060405180910390f35b34156101bb57600080fd5b6101c36105f6565b6040518082815260200191505060405180910390f35b34156101e457600080fd5b6101ec610600565b005b34156101f957600080fd5b61020f60048080359060200190919050506106f7565b6040518082815260200191505060405180910390f35b341561023057600080fd5b610238610717565b005b341561024557600080fd5b61024d610721565b6040518082815260200191505060405180910390f35b341561026e57600080fd5b610284600480803590602001909190505061072b565b604051808573ffffffffffffffffffffffffffffffffffffffff1673ffffffffffffffffffffffffffffffffffffffff16815260200184815260200183815260200182815260200194505050505060405180910390f35b6000600b80549050905090565b6000600360009054906101000a900460ff16600281111561030557fe5b905090565b6000600a60003373ffffffffffffffffffffffffffffffffffffffff1673ffffffffffffffffffffffffffffffffffffffff1681526020019081526020016000205490506000600a60003373ffffffffffffffffffffffffffffffffffffffff1673ffffffffffffffffffffffffffffffffffffffff168152602001908152602001600020819055503373ffffffffffffffffffffffffffffffffffffffff166108fc829081150290604051600060405180830381858888f1935050505015156103d357600080fd5b50565b600060028111156103e357fe5b600360009054906101000a900460ff1660028111156103fe57fe5b1480156104115750600554600454014210155b1561041f5761041e6107ea565b5b600080600281111561042d57fe5b600360009054906101000a900460ff16600281111561044857fe5b14151561045457600080fd5b6001543414151561046457600080fd5b60008214158015610479575060016002540182105b151561048457600080fd5b7fd29055b706470f86b38249ec58606b54b211d2b58593b53b036fe52641c78ae3336007543485604051808573ffffffffffffffffffffffffffffffffffffffff1673ffffffffffffffffffffffffffffffffffffffff16815260200184815260200183815260200182815260200194505050505060405180910390a134600080828254019250508190555061054c6060604051908101604052803373ffffffffffffffffffffffffffffffffffffffff16815260200160075481526020018481525061088b565b5050565b600280600281111561055e57fe5b600360009054906101000a900460ff16600281111561057957fe5b14151561058557600080fd5b6000600781905550600060068161059c9190610d00565b50600060098190555060006008816105b49190610d00565b506000600360006101000a81548160ff021916908360028111156105d457fe5b02179055504260048190555050565b60008054905090565b6000600754905090565b6000600554905090565b600080600281111561060e57fe5b600360009054906101000a900460ff16600281111561062957fe5b14801561063c5750600554600454014210155b1561064a576106496107ea565b5b600180600281111561065857fe5b600360009054906101000a900460ff16600281111561067357fe5b14151561067f57600080fd5b61068a6002546106f7565b91507f61e31a517bcc705e728848e8732ce207dcf982d238e09b80191da6f46f7736d1826040518082815260200191505060405180910390a16106cc82610943565b600060088054905011156106e3576106e2610a28565b5b6106eb6107ea565b6106f3610550565b5050565b600060018260014303406001900481151561070e57fe5b06019050919050565b61071f6107ea565b565b6000600454905090565b600080600080600b8581548110151561074057fe5b906000526020600020906005020160000160000160009054906101000a900473ffffffffffffffffffffffffffffffffffffffff16600b8681548110151561078457fe5b906000526020600020906005020160000160020154600b878154811015156107a857fe5b906000526020600020906005020160030154600b888154811015156107c957fe5b90600052602060002090600502016004015493509350935093509193509193565b6001600360009054906101000a900460ff16600281111561080757fe5b01600281111561081357fe5b600360006101000a81548160ff0219169083600281111561083057fe5b02179055507f551dc40198cc79684bb69e4931dba4ac16e4598792ee1c0a5000aeea366d7bb6600360009054906101000a900460ff166040518082600281111561087657fe5b60ff16815260200191505060405180910390a1565b60068054905060075414156108b45760016006818180549050019150816108b29190610d00565b505b80600660076000815480929190600101919050558154811015156108d457fe5b906000526020600020906003020160008201518160000160006101000a81548173ffffffffffffffffffffffffffffffffffffffff021916908373ffffffffffffffffffffffffffffffffffffffff160217905550602082015181600101556040820151816002015590505050565b60008090505b600754811015610a24578160068281548110151561096357fe5b9060005260206000209060030201600201541415610a1757610a1660068281548110151561098d57fe5b9060005260206000209060030201606060405190810160405290816000820160009054906101000a900473ffffffffffffffffffffffffffffffffffffffff1673ffffffffffffffffffffffffffffffffffffffff1673ffffffffffffffffffffffffffffffffffffffff16815260200160018201548152602001600282015481525050610c48565b5b8080600101915050610949565b5050565b600080600880549050600054811515610a3d57fe5b04915060008081905550600090505b600954811015610c445781600a6000600884815481101515610a6a57fe5b906000526020600020906003020160000160009054906101000a900473ffffffffffffffffffffffffffffffffffffffff1673ffffffffffffffffffffffffffffffffffffffff1673ffffffffffffffffffffffffffffffffffffffff16815260200190815260200160002060008282540192505081905550600b8054806001018281610af79190610d32565b91600052602060002090600502016000606060405190810160405280600886815481101515610b2257fe5b9060005260206000209060030201606060405190810160405290816000820160009054906101000a900473ffffffffffffffffffffffffffffffffffffffff1673ffffffffffffffffffffffffffffffffffffffff1673ffffffffffffffffffffffffffffffffffffffff16815260200160018201548152602001600282015481525050815260200186815260200142815250909190915060008201518160000160008201518160000160006101000a81548173ffffffffffffffffffffffffffffffffffffffff021916908373ffffffffffffffffffffffffffffffffffffffff1602179055506020820151816001015560408201518160020155505060208201518160030155604082015181600401555050508080600101915050610a4c565b5050565b6008805490506009541415610c71576001600881818054905001915081610c6f9190610d00565b505b8060086009600081548092919060010191905055815481101515610c9157fe5b906000526020600020906003020160008201518160000160006101000a81548173ffffffffffffffffffffffffffffffffffffffff021916908373ffffffffffffffffffffffffffffffffffffffff160217905550602082015181600101556040820151816002015590505050565b815481835581811511610d2d57600302816003028360005260206000209182019101610d2c9190610d64565b5b505050565b815481835581811511610d5f57600502816005028360005260206000209182019101610d5e9190610dba565b5b505050565b610db791905b80821115610db357600080820160006101000a81549073ffffffffffffffffffffffffffffffffffffffff02191690556001820160009055600282016000905550600301610d6a565b5090565b90565b610e2491905b80821115610e20576000808201600080820160006101000a81549073ffffffffffffffffffffffffffffffffffffffff02191690556001820160009055600282016000905550506003820160009055600482016000905550600501610dc0565b5090565b905600a165627a7a7230582010af34bc1b8b3e9c3ba092841809728645a9daba34bbab1858eb27278586e84b0029",
  "source": "pragma solidity ^0.4.18;\n\n\ncontract EtherLotto {\n    uint private pot = 0;\n    uint private bidSize = 0.2 ether;\n    uint private maximum = 3;\n    //uint private maximum = 999;\n\n    // This is the current stage.\n    States private state = States.AcceptingBids;\n    uint private creationTime = now;\n    uint private duration = 5 days;\n\n    enum States {\n        AcceptingBids,\n        ChooseWinner,\n        Reset\n    }\n\n    struct Player {\n        address id;\n        uint index;\n        uint luckyNumber;\n    }\n\n    Player[] private players;\n    uint private playerIndex = 0;\n    Player[] private winners;\n    uint private winnerIndex = 0;\n    mapping (address => uint) private pendingWithdrawals;\n\n    struct PastWinner {\n        Player player;\n        uint amount;\n        uint winningTime;\n    }\n\n    PastWinner[] private pastWinners;\n\n    event NewBidRecieved(address id, uint index, uint amount, uint luckyNumber);\n    event CalculatedNewRandom(uint random);\n    event StateChanged(States state);\n\n    modifier atState(States _state) {\n        require(state == _state);\n        _;\n    }\n\n    function nextState() internal {\n        state = States(uint(state) + 1);\n        StateChanged(state);\n    }\n    \n    modifier transitionNext() {\n        _;\n        nextState();\n    }\n    \n    modifier timedTransitions() {\n        if (state == States.AcceptingBids && now >= creationTime + duration) // change to a few days\n            nextState();\n        // The other states transition by transaction\n        _;\n    }\n\n    // ONLY FOR DEBUGGING\n    function setNextState() public {\n        nextState();\n    }\n    // ONLY FOR DEBUGGING\n    function getState() public view returns(uint _state) {\n        return uint(state);\n    }\n\n    function bid(uint _luckyNumber) public payable timedTransitions atState(States.AcceptingBids) {\n        require(msg.value == bidSize);\n        require(_luckyNumber != 0 && _luckyNumber < (maximum + 1)); \n\n        NewBidRecieved(msg.sender, playerIndex, msg.value, _luckyNumber);\n\n        pot += msg.value;\n        insertPlayer(Player(msg.sender, playerIndex, _luckyNumber));\n    }\n\n    function getRandom(uint _maximum) public view returns (uint random) {\n        return uint(block.blockhash(block.number-1)) % _maximum + 1;\n    }\n\n    function checkSingleBidPerPlayer(address newPlayer) internal view returns(bool singleBid) {\n        if (playerIndex == 0) {\n            return true;\n        }\n        for (uint i = 0; i < playerIndex; i++) {\n            if (players[i].id == newPlayer) {\n                return false;\n            }\n        }\n        return true;\n    }\n\n    function chooseWinner() public timedTransitions atState(States.ChooseWinner) {\n        uint winningNumber = getRandom(maximum);\n\n        CalculatedNewRandom(winningNumber);\n\n        getWinners(winningNumber);\n\n        if (winners.length > 0) {\n            setPendingWithdrawals();\n        }\n\n        // transition to Reset state\n        nextState();\n        clear();\n    }\n    \n    function setPendingWithdrawals() internal {\n        uint potPerWinner = pot / winners.length;\n        pot = 0;\n\n        for (uint i = 0; i < winnerIndex; i++) {\n            pendingWithdrawals[winners[i].id] += potPerWinner;\n            pastWinners.push(PastWinner(winners[i], potPerWinner, now));\n        }\n    }\n\n    function getWinners(uint winningNumber) internal {\n        for (uint i = 0; i < playerIndex; i++) {\n            if (players[i].luckyNumber == winningNumber) {\n                insertWinner(players[i]);\n            }\n        }\n    }\n\n    function getDuration() public view returns (uint _duration) {\n        return duration;\n    }\n\n    function getCreationTime() public view returns (uint _creationTime) {\n        return creationTime;\n    }\n\n    function getPastWinnersCount() public view returns (uint pastWinnersCount) {\n        return pastWinners.length;\n    }\n\n    function getPastWinnerData(uint i) public view returns (address id, uint luckyNumber, uint amount, uint winningTime) {\n        return (pastWinners[i].player.id, pastWinners[i].player.luckyNumber, pastWinners[i].amount, pastWinners[i].winningTime);\n    }\n\n    function getPlayersCount() public view returns (uint playersCount) {\n        return playerIndex;\n    }\n\n    function getPotBalance() public view returns (uint potBalance) {\n        return pot;\n    }\n\n    function withdraw() public {\n        uint amount = pendingWithdrawals[msg.sender];\n        // Remember to zero the pending refund before\n        // sending to prevent re-entrancy attacks\n        pendingWithdrawals[msg.sender] = 0;\n        msg.sender.transfer(amount);\n    }\n\n    function insertPlayer(Player newPlayer) internal {\n        if (playerIndex == players.length) {\n            players.length += 1;\n        }\n        players[playerIndex++] = newPlayer;\n    }\n\n    function insertWinner(Player winningPlayer) internal {\n        if (winnerIndex == winners.length) {\n            winners.length += 1;\n        }\n        winners[winnerIndex++] = winningPlayer;\n    }\n\n    function clear() public atState(States.Reset) {\n        playerIndex = 0;\n        players.length = 0;\n        winnerIndex = 0;\n        winners.length = 0;\n        state = States.AcceptingBids;\n        creationTime = now;\n    }\n}\n",
  "sourcePath": "/home/gmarkowitsch/Documents/git/EtherLotto/etherlotto_v2/contracts/EtherLotto.sol",
  "compiler": {
    "name": "solc",
    "version": "0.4.18+commit.9cf6e910.Emscripten.clang"
  },
  "schemaVersion": "1.0.1",
  "updatedAt": "2018-01-12T10:35:57.956Z"
}