{
  "contractName": "EtherLotto",
  "abi": [
    {
      "constant": false,
      "inputs": [],
      "name": "bid",
      "outputs": [],
      "payable": true,
      "stateMutability": "payable",
      "type": "function"
    },
    {
      "constant": false,
      "inputs": [],
      "name": "withdraw",
      "outputs": [],
      "payable": false,
      "stateMutability": "nonpayable",
      "type": "function"
    },
    {
      "constant": true,
      "inputs": [],
      "name": "getPotBalance",
      "outputs": [
        {
          "name": "potBalance",
          "type": "uint256"
        }
      ],
      "payable": false,
      "stateMutability": "view",
      "type": "function"
    },
    {
      "constant": true,
      "inputs": [
        {
          "name": "maximum",
          "type": "uint256"
        }
      ],
      "name": "getRandom",
      "outputs": [
        {
          "name": "random",
          "type": "uint256"
        }
      ],
      "payable": false,
      "stateMutability": "view",
      "type": "function"
    },
    {
      "constant": true,
      "inputs": [],
      "name": "getPlayersLength",
      "outputs": [
        {
          "name": "length",
          "type": "uint256"
        }
      ],
      "payable": false,
      "stateMutability": "view",
      "type": "function"
    },
    {
      "constant": true,
      "inputs": [
        {
          "name": "",
          "type": "uint256"
        }
      ],
      "name": "players",
      "outputs": [
        {
          "name": "id",
          "type": "address"
        },
        {
          "name": "slot",
          "type": "uint256"
        }
      ],
      "payable": false,
      "stateMutability": "view",
      "type": "function"
    },
    {
      "anonymous": false,
      "inputs": [
        {
          "indexed": false,
          "name": "player",
          "type": "address"
        },
        {
          "indexed": false,
          "name": "amount",
          "type": "uint256"
        }
      ],
      "name": "NewBidRecieved",
      "type": "event"
    },
    {
      "anonymous": false,
      "inputs": [
        {
          "indexed": false,
          "name": "random",
          "type": "uint256"
        }
      ],
      "name": "CalculatedNewRandom",
      "type": "event"
    }
  ],
  "bytecode": "0x60606040526000805560056001556000600255341561001d57600080fd5b6106718061002c6000396000f300606060405260043610610078576000357c0100000000000000000000000000000000000000000000000000000000900463ffffffff1680631998aeef1461007d5780633ccfd60b1461008757806371e8fb571461009c578063cd4b6914146100c5578063cd61386d146100fc578063f71d96cb14610125575b600080fd5b61008561018f565b005b341561009257600080fd5b61009a6103a7565b005b34156100a757600080fd5b6100af610473565b6040518082815260200191505060405180910390f35b34156100d057600080fd5b6100e6600480803590602001909190505061047c565b6040518082815260200191505060405180910390f35b341561010757600080fd5b61010f610499565b6040518082815260200191505060405180910390f35b341561013057600080fd5b61014660048080359060200190919050506104a3565b604051808373ffffffffffffffffffffffffffffffffffffffff1673ffffffffffffffffffffffffffffffffffffffff1681526020018281526020019250505060405180910390f35b60007f59307745a02f89bbe8ead96cb251032678cd03644d4cb39debf7c7173149fd4d3334604051808373ffffffffffffffffffffffffffffffffffffffff1673ffffffffffffffffffffffffffffffffffffffff1681526020018281526020019250505060405180910390a134600080828254019250508190555061024060408051908101604052803373ffffffffffffffffffffffffffffffffffffffff1681526020016002548152506104f6565b6001546003805490501015156103a45761025b60015461047c565b90507f61e31a517bcc705e728848e8732ce207dcf982d238e09b80191da6f46f7736d1816040518082815260200191505060405180910390a16003818154811015156102a357fe5b906000526020600020906002020160046000820160009054906101000a900473ffffffffffffffffffffffffffffffffffffffff168160000160006101000a81548173ffffffffffffffffffffffffffffffffffffffff021916908373ffffffffffffffffffffffffffffffffffffffff1602179055506001820154816001015590505060005460066000600460000160009054906101000a900473ffffffffffffffffffffffffffffffffffffffff1673ffffffffffffffffffffffffffffffffffffffff1673ffffffffffffffffffffffffffffffffffffffff168152602001908152602001600020600082825401925050819055506103a36105a4565b5b50565b6000600660003373ffffffffffffffffffffffffffffffffffffffff1673ffffffffffffffffffffffffffffffffffffffff1681526020019081526020016000205490506000600660003373ffffffffffffffffffffffffffffffffffffffff1673ffffffffffffffffffffffffffffffffffffffff168152602001908152602001600020819055503373ffffffffffffffffffffffffffffffffffffffff166108fc829081150290604051600060405180830381858888f19350505050151561047057600080fd5b50565b60008054905090565b60008160014303406001900481151561049157fe5b069050919050565b6000600254905090565b6003818154811015156104b257fe5b90600052602060002090600202016000915090508060000160009054906101000a900473ffffffffffffffffffffffffffffffffffffffff16908060010154905082565b600380549050600254141561051f57600160038181805490500191508161051d91906105c5565b505b806003600260008154809291906001019190505581548110151561053f57fe5b906000526020600020906002020160008201518160000160006101000a81548173ffffffffffffffffffffffffffffffffffffffff021916908373ffffffffffffffffffffffffffffffffffffffff1602179055506020820151816001015590505050565b60006002819055506000808190555060006003816105c291906105c5565b50565b8154818355818115116105f2576002028160020283600052602060002091820191016105f191906105f7565b5b505050565b61064291905b8082111561063e57600080820160006101000a81549073ffffffffffffffffffffffffffffffffffffffff02191690556001820160009055506002016105fd565b5090565b905600a165627a7a72305820f13aad8482194340b6b0c22e22848114682d2ed1ee8d76b537c825b4fdd7f2dd0029",
  "source": "pragma solidity ^0.4.18;\n\n\ncontract EtherLotto {\n    uint private pot = 0;\n    uint private maxPlayers = 5;\n    uint private numElements = 0;\n\n    struct Player {\n        address id;\n        uint slot;\n    }\n\n    Player[] public players;\n    Player private winner;\n    mapping (address => uint) private pendingWithdrawals;\n\n    event NewBidRecieved(address player, uint amount);\n    event CalculatedNewRandom(uint random);\n\n    function bid() public payable {\n        NewBidRecieved(msg.sender, msg.value);\n\n        pot += msg.value;\n        insertPlayer(Player(msg.sender, numElements));\n\n        if (players.length >= maxPlayers) {\n            uint random = getRandom(maxPlayers);\n            CalculatedNewRandom(random);\n\n            winner = players[random];\n\n            pendingWithdrawals[winner.id] += pot;\n\n            clear();\n        }\n    }\n\n    function getPlayersLength() public view returns(uint length) {\n        return numElements;\n    }\n\n    function getPotBalance() public view returns (uint potBalance) {\n        return pot;\n    }\n\n    function withdraw() public {\n        uint amount = pendingWithdrawals[msg.sender];\n        // Remember to zero the pending refund before\n        // sending to prevent re-entrancy attacks\n        pendingWithdrawals[msg.sender] = 0;\n        msg.sender.transfer(amount);\n    }\n\n    function getRandom(uint maximum) public view returns (uint random) {\n        return uint(block.blockhash(block.number-1))%maximum;\n    }\n\n    function insertPlayer(Player newPlayer) internal {\n        if (numElements == players.length) {\n            players.length += 1;\n        }\n        players[numElements++] = newPlayer;\n    }\n\n    function clear() internal {\n        numElements = 0;\n        pot = 0;\n        players.length = 0;\n    }\n}\n",
  "sourcePath": "/Users/gmarkowitsch/git-priv/EtherLotto/web/contracts/EtherLotto.sol",
  "compiler": {
    "name": "solc",
    "version": "0.4.18+commit.9cf6e910.Emscripten.clang"
  },
  "schemaVersion": "1.0.1",
  "updatedAt": "2018-01-07T15:49:24.779Z"
}