{
  "contractName": "EtherLotto",
  "abi": [
    {
      "constant": false,
      "inputs": [],
      "name": "bid",
      "outputs": [],
      "payable": true,
      "stateMutability": "payable",
      "type": "function"
    },
    {
      "constant": false,
      "inputs": [],
      "name": "withdraw",
      "outputs": [],
      "payable": false,
      "stateMutability": "nonpayable",
      "type": "function"
    },
    {
      "constant": true,
      "inputs": [],
      "name": "getPotBalance",
      "outputs": [
        {
          "name": "potBalance",
          "type": "uint256"
        }
      ],
      "payable": false,
      "stateMutability": "view",
      "type": "function"
    },
    {
      "constant": true,
      "inputs": [
        {
          "name": "maximum",
          "type": "uint256"
        }
      ],
      "name": "getRandom",
      "outputs": [
        {
          "name": "random",
          "type": "uint256"
        }
      ],
      "payable": false,
      "stateMutability": "view",
      "type": "function"
    },
    {
      "constant": true,
      "inputs": [],
      "name": "getPlayersLength",
      "outputs": [
        {
          "name": "length",
          "type": "uint256"
        }
      ],
      "payable": false,
      "stateMutability": "view",
      "type": "function"
    },
    {
      "anonymous": false,
      "inputs": [
        {
          "indexed": false,
          "name": "player",
          "type": "address"
        },
        {
          "indexed": false,
          "name": "amount",
          "type": "uint256"
        }
      ],
      "name": "NewBidRecieved",
      "type": "event"
    },
    {
      "anonymous": false,
      "inputs": [
        {
          "indexed": false,
          "name": "random",
          "type": "uint256"
        }
      ],
      "name": "CalculatedNewRandom",
      "type": "event"
    }
  ],
  "bytecode": "0x606060405260008055600560015560006002556702c68af0bb140000600355341561002957600080fd5b61068f806100386000396000f30060606040526004361061006d576000357c0100000000000000000000000000000000000000000000000000000000900463ffffffff1680631998aeef146100725780633ccfd60b1461007c57806371e8fb5714610091578063cd4b6914146100ba578063cd61386d146100f1575b600080fd5b61007a61011a565b005b341561008757600080fd5b61008f61035d565b005b341561009c57600080fd5b6100a4610429565b6040518082815260200191505060405180910390f35b34156100c557600080fd5b6100db6004808035906020019091905050610432565b6040518082815260200191505060405180910390f35b34156100fc57600080fd5b61010461044f565b6040518082815260200191505060405180910390f35b60007f59307745a02f89bbe8ead96cb251032678cd03644d4cb39debf7c7173149fd4d3334604051808373ffffffffffffffffffffffffffffffffffffffff1673ffffffffffffffffffffffffffffffffffffffff1681526020018281526020019250505060405180910390a16003543414151561019757600080fd5b600115156101a433610459565b15151415156101b257600080fd5b3460008082825401925050819055506101f660408051908101604052803373ffffffffffffffffffffffffffffffffffffffff168152602001600254815250610514565b60015460048054905010151561035a57610211600154610432565b90507f61e31a517bcc705e728848e8732ce207dcf982d238e09b80191da6f46f7736d1816040518082815260200191505060405180910390a160048181548110151561025957fe5b906000526020600020906002020160056000820160009054906101000a900473ffffffffffffffffffffffffffffffffffffffff168160000160006101000a81548173ffffffffffffffffffffffffffffffffffffffff021916908373ffffffffffffffffffffffffffffffffffffffff1602179055506001820154816001015590505060005460076000600560000160009054906101000a900473ffffffffffffffffffffffffffffffffffffffff1673ffffffffffffffffffffffffffffffffffffffff1673ffffffffffffffffffffffffffffffffffffffff168152602001908152602001600020600082825401925050819055506103596105c2565b5b50565b6000600760003373ffffffffffffffffffffffffffffffffffffffff1673ffffffffffffffffffffffffffffffffffffffff1681526020019081526020016000205490506000600760003373ffffffffffffffffffffffffffffffffffffffff1673ffffffffffffffffffffffffffffffffffffffff168152602001908152602001600020819055503373ffffffffffffffffffffffffffffffffffffffff166108fc829081150290604051600060405180830381858888f19350505050151561042657600080fd5b50565b60008054905090565b60008160014303406001900481151561044757fe5b069050919050565b6000600254905090565b60008060006002541415610470576001915061050e565b600090505b600254811015610509578273ffffffffffffffffffffffffffffffffffffffff166004828154811015156104a557fe5b906000526020600020906002020160000160009054906101000a900473ffffffffffffffffffffffffffffffffffffffff1673ffffffffffffffffffffffffffffffffffffffff1614156104fc576000915061050e565b8080600101915050610475565b600191505b50919050565b600480549050600254141561053d57600160048181805490500191508161053b91906105e3565b505b806004600260008154809291906001019190505581548110151561055d57fe5b906000526020600020906002020160008201518160000160006101000a81548173ffffffffffffffffffffffffffffffffffffffff021916908373ffffffffffffffffffffffffffffffffffffffff1602179055506020820151816001015590505050565b60006002819055506000808190555060006004816105e091906105e3565b50565b8154818355818115116106105760020281600202836000526020600020918201910161060f9190610615565b5b505050565b61066091905b8082111561065c57600080820160006101000a81549073ffffffffffffffffffffffffffffffffffffffff021916905560018201600090555060020161061b565b5090565b905600a165627a7a723058201afeeed4ccb471d95c27624e3e7fd9fc08d264550af51389d33f4a92dd4e5f420029",
  "source": "pragma solidity ^0.4.18;\n\n\ncontract EtherLotto {\n    uint private pot = 0;\n    uint private maxPlayers = 5;\n    uint private playerIndex = 0;\n    uint private bidSize = 0.2 ether;\n\n    struct Player {\n        address id;\n        uint slot;\n    }\n\n    Player[] private players;\n    Player private winner;\n    mapping (address => uint) private pendingWithdrawals;\n\n    event NewBidRecieved(address player, uint amount);\n    event CalculatedNewRandom(uint random);\n\n    function bid() public payable {\n        NewBidRecieved(msg.sender, msg.value);\n        require(msg.value == bidSize);\n        require(checkSingleBidPerPlayer(msg.sender) == true);\n\n        pot += msg.value;\n        insertPlayer(Player(msg.sender, playerIndex));\n\n        if (players.length >= maxPlayers) {\n            uint random = getRandom(maxPlayers);\n            CalculatedNewRandom(random);\n\n            winner = players[random];\n\n            pendingWithdrawals[winner.id] += pot;\n\n            clear();\n        }\n    }\n\n    function getPlayersLength() public view returns(uint length) {\n        return playerIndex;\n    }\n\n    function getPotBalance() public view returns (uint potBalance) {\n        return pot;\n    }\n\n    function withdraw() public {\n        uint amount = pendingWithdrawals[msg.sender];\n        // Remember to zero the pending refund before\n        // sending to prevent re-entrancy attacks\n        pendingWithdrawals[msg.sender] = 0;\n        msg.sender.transfer(amount);\n    }\n\n    function getRandom(uint maximum) public view returns (uint random) {\n        return uint(block.blockhash(block.number-1))%maximum;\n    }\n\n    function insertPlayer(Player newPlayer) internal {\n        if (playerIndex == players.length) {\n            players.length += 1;\n        }\n        players[playerIndex++] = newPlayer;\n    }\n\n    function checkSingleBidPerPlayer(address newPlayer) internal view returns(bool singleBid) {\n        if (playerIndex == 0) {\n            return true;\n        }\n        for (uint i = 0; i < playerIndex; i++) {\n            if (players[i].id == newPlayer) {\n                return false;\n            }\n        }\n        return true;\n    }\n\n    function clear() internal {\n        playerIndex = 0;\n        pot = 0;\n        players.length = 0;\n    }\n}\n",
  "sourcePath": "/Users/gmarkowitsch/git-priv/EtherLotto/web/contracts/EtherLotto.sol",
  "compiler": {
    "name": "solc",
    "version": "0.4.18+commit.9cf6e910.Emscripten.clang"
  },
  "schemaVersion": "1.0.1",
  "updatedAt": "2018-01-10T05:58:17.386Z"
}